:040000000BEF00F012
:100008004A82FACF08F0FBCF09F0C0ED03F07EEF8B
:0200180006F0F0
:1003000000010002000400080010002000400080EE
:10031000000001000200040008001000200040005E
:1003200080840D00000000000000000000000000BC
:1003300000000000000000000000000000000000BD
:10034000000001010202020203030303030303038B
:100350004E0C1A0C800004DE0D840D4661696C653C
:1003600064206F6E20617474656D707420746F20EA
:10037000506F73740A004661696C6564206F6E206B
:100380004E554C4C20706F696E7465720A00466160
:10039000696C656420496E697469616C697A61741D
:1003A000696F6E0A004F74686572204661696C75EA
:0503B00072650A000067
:1003B60022C02AF023C02BF020EE02F02A50D926C4
:1003C6002B50DA22DF50D8B45ED0F2CF28F0F29E5E
:1003D60020EE01F02A50D9262B50DA22DF50266E65
:1003E600010E26241C6E1D6A000E1D22000E1F6EB5
:1003F600030E1E6E91EC06F01C502224D96E1D5081
:100406002320DA6E24C0E1FF25C0E2FFDECFE6FF3F
:10041600DECFE6FFDECFE6FF20EE01F02A50D9263A
:100426002B50DA22DF2A2AC0D9FF2BC0DAFF10EEC2
:1004360001F02A50E1262B50E222DE50E65CD8A0DD
:1004460016D020EE01F02A50D9262B50DA222AC0E7
:10045600E1FF2BC0E2FFE750166E10EE01F02A50C6
:10046600E1262B50E222E75069EC06F0DF6E20EE23
:1004760002F02A50D9262B50DA22DF06DF50296EE9
:1004860028C0F2FF12D024C0D9FF25C0DAFF000E23
:10049600DF6E20EE01F02450D9262550DA22000E18
:1004A600DE6E000EDD6E000E296E295012004050E1
:1004B6004110D8B4120040C036F041C037F036C003
:1004C60016F037C017F0F9EC04F0446E4450020DF4
:1004D600600EF324D96E000EF420DA6EDE06000EEE
:1004E600DD5ADE50DE10D8A43DD0030E336E44C074
:1004F60034F0356A33C08CF034C08DF035C08EF0E0
:100506004450020D210EF324F66E030EF420F76E0E
:1005160001D80CD00500FA6E0900F550FD6E0900F1
:10052600F550FE6EF850FF6EFA5012004450020D60
:10053600010EF324F66E030EF420F76E0900F5CFD4
:100546008FF00900F5CF90F000018F1D0001916F2B
:100556000001901D0001926F0001915140160001AB
:10056600925141164450020D010EF324F66E030E0D
:10057600F420F76E0900F5CF8FF00900F5CF90F063
:1005860000018F1D0001916F0001901D0001926F07
:100596000001915136160001925137163650371028
:1005A600D8B412008CD790C018F091C019F0E5ECC1
:1005B60006F0000E0001926F000192510001D8A4CE
:1005C60066D000019251040D500EF324F66E030E10
:1005D600F420F76E0900F5500900F510D8B413D0D1
:1005E60000019251040D020EF326000EF422500E65
:1005F600F324F66E030EF420F76E0900F550090099
:10060600F510D8A402D0030E120000019251030D7A
:10061600540EF324F66E030EF420F76E0900F5CFA0
:1006260016F00A00F5CF17F000019251030D020EE5
:10063600F326000EF422540EF324F66E030EF42075
:10064600F76E0800F5CF18F0F2EC05F000019251B4
:10065600040D500EF324F66E030EF420F76E01D847
:100666000ED00500FA6E0900F550FD6E0900F55032
:10067600FE6EF850FF6EFA50000192511200E80625
:10068600D8B402D0050E12000001922B95D7000EA9
:10069600120067D03CC016F03DC017F0F9EC04F02C
:1006A6000001976F00019751030D540EF324F66E67
:1006B600030EF420F76E0900F5CF22F00A00F5CFFD
:1006C60023F0470E246E000E256EDBEC01F00009C8
:1006D600D8A41DD000019751020D010EF324F66E29
:1006E600030EF420F76E0900F5CF93F00900F5CF5D
:1006F60094F00001931D0001956F0001941D000107
:10070600966F000195513C16000196513D1647C063
:1007160016F048C017F049C018F000019751040DB3
:10072600020EF326000EF422500EF324F66E030E8C
:10073600F420F76E01D80CD00500FA6E0900F550CA
:10074600FD6E0900F550FE6EF850FF6EFA5012006D
:10075600160ED96E000EDA6EDF50D8B402D0020E35
:100766001200CCEC06F00009D8B404D03C503D1081
:10077600D8A490D7D2EC05F0F4D70600E9CF0AF05A
:10078600EACF0BF0E1CF0CF0E2CF0DF0D9CF0EF0AF
:10079600DACF0FF0F3CF10F0F4CF11F0F6CF12F05E
:1007A600F7CF13F0F8CF14F0F5CF15F09EA414D0C0
:1007B600BF50066EBE50386E06C039F0200E382483
:1007C6003A6E4E0E39203B6E3B50BF6E3AC0BEFFAE
:1007D6009E94462A3E4A3F2AA4A403D0A494ECEC55
:1007E60006F0A4A003D0A490B3EC06F0A4AA03D00C
:1007F600A49ADDEC06F0A4AE03D0A49EF2EC06F0BB
:1008060015C0F5FF14C0F8FF13C0F7FF12C0F6FFBE
:1008160011C0F4FF10C0F3FF0FC0DAFF0EC0D9FFFE
:100826000DC0E2FF0CC0E1FF0BC0EAFF0AC0E9FF02
:1008360009C0FBFF08C0FAFF4A92110022C02BF044
:1008460023C02CF02BC0D9FF2CC0DAFF10EE02F02B
:100856002B50E1262C50E222DE50E65CD8B046D082
:10086600F2CF2AF0F29E2BC0D9FF2CC0DAFFDF5060
:10087600276E2750186E196A20EE02F02B50D926E3
:100886002C50DA22DF50286E20EE01F02B50D926AC
:100896002C50DA22DF50296E29502824166E176A4A
:1008A600173632EC05F0010E16241C6E000E1720CA
:1008B6001D6E000E1F6E030E1E6E91EC06F01C5090
:1008C6002224D96E1D502320DA6E24C0DEFF25C0F7
:1008D600DEFF26C0DEFF20EE02F02B50D9262C507C
:1008E600DA22DF2A2AC0F2FF010E1200000E1200E1
:1008F600D388D38AD38CD3829C0E0001916F3F0E8E
:10090600906FD6EC02F00001986F0001985100013B
:10091600D8A421D04CEC03F00001986F1CD05B0EDC
:10092600166E030E176E54EC06F021D0760E166E78
:10093600030E176E54EC06F01AD08E0E166E030ECA
:10094600176E54EC06F013D0A50E166E030E176E36
:1009560054EC06F00CD000019851010AD8B4DFD748
:10096600020AD8B4E3D7060AD8B4E7D7EDD7FFD73B
:10097600800E6F6E6EAEFED7200E736E718E709007
:10098600708270847096719071927194719671985C
:10099600719A728072927294709C6094609A609C54
:1009A600000E0F01006F080E0F01016F000E0F0100
:1009B600026F010E0F01036F000E0F01186F000E7C
:1009C6000F01196F000E0F011A6F010E0F011B6F39
:1009D600000E776E100E6F6E6EBEFED7A380A38AD2
:1009E600A38EA490A49AA49E609E1200800E1D6EF3
:1009F600030E1F6E1FBE31D01F50040DF3CF18F02B
:100A060016C019F017C01AF0182A03D0D8901A3257
:100A16001932182EFBD719500F0B1E6E1E50D8B464
:100A26001AD0FF0E186EFF0E196E1E501A6E1B6A34
:100A360018501A2619501B22410E1A24F66E030E60
:100A46001B20F76E0800F5CF1CF01F50040DF35065
:100A56001C241D6E02D01F06CDD71D501200000E9D
:100A66001B6E17AE06D0166C171ED8B0172A010ECD
:100A76001B6E19AE04D0186C191ED8B0192A18505E
:100A86001910D8B418D0010E1A6E04D0D8901836A2
:100A960019361A2A19AEFAD71850165C1950175873
:100AA600D8A004D01850165E1950175AD89019328B
:100AB60018321A2EF1D71B50D8B404D0166C171E54
:100AC600D8B0172A16C016F017C017F01200056E18
:100AD600100E056012000550020D210EF324F66E6D
:100AE600030EF420F76E0900F5500900F510D8B48E
:100AF600120001500210D8B412000550020D600E0B
:100B0600F324D96E000EF420DA6E01C0DEFF02C0B7
:100B1600DDFF0550020D010EF324F66E030EF420E0
:100B2600F76E0900F5CF03F00900F5CF04F0035086
:100B36004012045041121200326E3250D8A42DD009
:100B46003250030D540EF324F66E030EF420F76EA6
:100B56000900F5CF22F00A00F5CF23F02DC024F0CE
:100B66002EC025F02FC026F021EC04F0E806D8A40C
:100B760014D03250020D010EF324F66E030EF4204B
:100B8600F76E0900F5CF30F00900F5CF31F030509F
:100B96003C1231503D12010E1200000E1200000EE2
:100BA600166E1650D8A412001650020D570EF324D6
:100BB600F66E030EF420F76E01D80CD00500FA6E1F
:100BC6000900F550FD6E0900F550FE6EF850FF6EF7
:100BD600FA501200E806D8B41200162AE2D716C058
:100BE60019F017C01AF0180419C0D9FF1AC0DAFF95
:100BF600DF6E20EE01F01950D9261A50DA22000EC7
:100C0600DF6E20EE02F01950D9261A50DA22000EB5
:100C1600DF6E1200020E1618D8A404D03EEC06F0C1
:100C2600BBEC04F0030E1618D8A405D01750181004
:100C3600D8B4D5EC06F0000E196E19C016F01AC01D
:100C460017F01BC018F0120000018F6F8FC045F01F
:100C5600020E00018C6F8CC02DF08DC02EF08EC060
:100C66002FF045509FEC05F0E806D8A402D0010EFF
:100C76001200000E1200000E816E000E8A6E000E2B
:100C8600806E000E896E0F0EC16E929092929294B3
:100C960092969394938689928990899489868A9468
:100CA6001200180E186E000E196E03D01A50F1ECD1
:100CB60006F016C0F6FF17C0F7FF164A172A0800F7
:100CC600F5CF1AF01A50D8B41200F0D7176E080EE6
:100CD600186E000E196ED89017341934196ED89004
:100CE60017361650195CD8A002D01650195E182E69
:100CF600F2D71950120000EE60F02C0EEE6AE806EC
:100D0600FDE100EE33F0170EEE6AE806FDE14A90CB
:100D16004A92000EF86E00017BEF04F01C501E0292
:100D2600F3CF20F0F4CF21F01C501F02F350212600
:100D36001D501E02F350212620C01CF021C01DF0BC
:100D46001200040E9D6E400EF26E0A0EBD6E010E6E
:100D5600BE6E000EBF6E210ECD6EF28CF28E1200AC
:100D660060AE1200AA0E6618D8B48984609E000E82
:100D7600026E320E016E000E6AEC05F012008CC097
:100D86002DF08DC02EF08EC02FF045509FEC05F053
:100D9600120003D05AEC02F046064650D8A4FAD701
:100DA600010E120089A202D08992120089B21200A5
:100DB6008982120089A002D08990120089B012009F
:100DC6008980120018C016F019C017F0A4EC06F0BE
:100DD60012000F0140971200000E120012001200BE
:020000040020DA
:08000000FFFFFFFFFFFFFFFF00
:020000040030CA
:0E000000FF08191EFF8085FF0FC00FE00F40A4
:00000001FF
