:040000000BEF00F012
:100008004A82FACF08F0FBCF09F01CED04F074EF38
:0200180006F0F0
:1003000000010002000400080010002000400080EE
:10031000000001000200040008001000200040005E
:1003200080000000009A0D000000000000000000A6
:1003300000000000000000000000000000000000BD
:10034000000001010202020203030303030303038B
:100350003C0C5A0D840B940C8000048C0004F60DA8
:100360004661696C6564206F6E20617474656D70A0
:100370007420746F20506F73740A004661696C6555
:1003800064206F6E204E554C4C20706F696E746502
:10039000720A004661696C656420496E697469611E
:1003A0006C697A6174696F6E0A004F7468657220B7
:1003B0004661696C7572650A000022C02AF023C08C
:1003C0002BF020EE02F02A50D9262B50DA22DF50F3
:1003D000D8B45ED0F2CF28F0F29E20EE01F02A5081
:1003E000D9262B50DA22DF50266E010E26241C6EF1
:1003F0001D6A000E1D22000E1F6E030E1E6E9AEC6B
:1004000006F01C502224D96E1D502320DA6E24C021
:10041000E1FF25C0E2FFDECFE6FFDECFE6FFDECF65
:10042000E6FF20EE01F02A50D9262B50DA22DF2AEF
:100430002AC0D9FF2BC0DAFF10EE01F02A50E126C6
:100440002B50E222DE50E65CD8A016D020EE01F060
:100450002A50D9262B50DA222AC0E1FF2BC0E2FF16
:10046000E750166E10EE01F02A50E1262B50E222E2
:10047000E7505FEC06F0DF6E20EE02F02A50D9263E
:100480002B50DA22DF06DF50296E28C0F2FF12D08F
:1004900024C0D9FF25C0DAFF000EDF6E20EE01F088
:1004A0002450D9262550DA22000EDE6E000EDD6EB5
:1004B000000E296E295012003F504010D8B412008F
:1004C0003FC035F040C036F035C016F036C017F0EA
:1004D000B3EC04F0446E4450020D600EF324D96E68
:1004E000000EF420DA6EDE06000EDD5ADE50DE105D
:1004F000D8A43DD0030E326E44C033F0346A32C00B
:1005000099F033C09AF034C09BF04450020D210E94
:10051000F324F66E030EF420F76E01D80CD005001C
:10052000FA6E0900F550FD6E0900F550FE6EF850A8
:10053000FF6EFA5012004450020D010EF324F66EC5
:10054000030EF420F76E0900F5CF9CF00900F5CFFB
:100550009DF000019C1D00019E6F00019D1D00018A
:100560009F6F00019E513F1600019F51401644505D
:10057000020D010EF324F66E030EF420F76E09004F
:10058000F5CF9CF00900F5CF9DF000019C1D000106
:100590009E6F00019D1D00019F6F00019E51351649
:1005A00000019F51361635503610D8B412008CD742
:1005B0009DC018F09EC019F0F4EC06F0000E00018A
:1005C0009F6F010E00019F6501D066D000019F5111
:1005D000040D500EF324F66E030EF420F76E09009E
:1005E000F5500900F510D8B413D000019F51040D47
:1005F000020EF326000EF422500EF324F66E030EC4
:10060000F420F76E0900F5500900F510D8A402D0C7
:10061000030E120000019F51030D580EF324F66ED5
:10062000030EF420F76E0900F5CF16F00A00F5CF9F
:1006300017F000019F51030D020EF326000EF42265
:10064000580EF324F66E030EF420F76E0800F5CF73
:1006500018F003EC06F000019F51040D500EF32436
:10066000F66E030EF420F76E01D80ED00500FA6E78
:100670000900F550FD6E0900F550FE6EF850FF6E52
:10068000FA5000019F511200E806D8B402D0050EBE
:10069000120000019F2B95D7000E120067D03BC0BF
:1006A00016F03CC017F0B3EC04F00001A46F000199
:1006B000A451030D580EF324F66E030EF420F76ECA
:1006C0000900F5CF22F00A00F5CF23F0470E246E83
:1006D000000E256EDDEC01F00009D8A41DD000014C
:1006E000A451020D010EF324F66E030EF420F76EF2
:1006F0000900F5CFA0F00900F5CFA1F00001A01D81
:100700000001A26F0001A11D0001A36F0001A25111
:100710003B160001A3513C1647C017F048C018F023
:1007200049C019F00001A451040D020EF326000E79
:10073000F422500EF324F66E030EF420F76E01D867
:100740000CD00500FA6E0900F550FD6E0900F55059
:10075000FE6EF850FF6EFA501200170ED96E000EA2
:10076000DA6EDF50D8B402D0020E1200EBEC06F0C5
:100770000009D8B404D03B503C10D8A490D7E3EC87
:1007800005F0F4D722C02BF023C02CF02BC0D9FFEA
:100790002CC0DAFF10EE02F02B50E1262C50E222A2
:1007A000DE50E65CD8B046D0F2CF2AF0F29E2BC0E5
:1007B000D9FF2CC0DAFFDF50276E2750186E196A58
:1007C00020EE02F02B50D9262C50DA22DF50286E72
:1007D00020EE01F02B50D9262C50DA22DF50296E62
:1007E00029502824166E176A1736ECEC04F0010E17
:1007F00016241C6E000E17201D6E000E1F6E030EB9
:100800001E6E9AEC06F01C502224D96E1D50232037
:10081000DA6E24C0DEFF25C0DEFF26C0DEFF20EE3C
:1008200002F02B50D9262C50DA22DF2A2AC0F2FF00
:10083000010E1200000E12000600E9CF0AF0EACF06
:100840000BF0E1CF0CF0E2CF0DF0D9CF0EF0DACF04
:100850000FF0F3CF10F0F4CF11F0F6CF12F0F7CF86
:1008600013F0F8CF14F0F5CF15F09EA414D0BF50BC
:10087000066EBE50376E06C038F0200E3724396E33
:100880004E0E38203A6E3A50BF6E39C0BEFF9E946D
:10089000462A3D4A3E2AA4A403D0A494D7EC06F0ED
:1008A000A4A003D0A490E1EC06F015C0F5FF14C09D
:1008B000F8FF13C0F7FF12C0F6FF11C0F4FF10C01D
:1008C000F3FF0FC0DAFF0EC0D9FF0DC0E2FF0CC06E
:1008D000E1FF0BC0EAFF0AC0E9FF09C0FBFF08C047
:1008E000FAFF4A921100D388D38AD38CD3829C0E0C
:1008F00000019E6F3F0E9D6FD8EC02F00001A56FC6
:100900000001A5510001D8A421D04EEC03F0000154
:10091000A56F1CD0600E166E030E176E35EC06F038
:1009200021D07B0E166E030E176E35EC06F01AD032
:10093000930E166E030E176E35EC06F013D0AA0E4A
:10094000166E030E176E35EC06F00CD00001A551A3
:10095000010AD8B4DFD7020AD8B4E3D7060AD8B45C
:10096000E7D7EDD7FFD7800E1D6E030E1F6E1FBE9B
:1009700031D01F50040DF3CF18F016C019F017C076
:100980001AF0182A03D0D8901A321932182EFBD731
:1009900019500F0B1E6E1E50D8B41AD0FF0E186ED1
:1009A000FF0E196E1E501A6E1B6A18501A26195027
:1009B0001B22410E1A24F66E030E1B20F76E080050
:1009C000F5CF1CF01F50040DF3501C241D6E02D0F7
:1009D0001F06CDD71D501200000E1B6E17AE06D09D
:1009E000166C171ED8B0172A010E1B6E19AE04D054
:1009F000186C191ED8B0192A18501910D8B418D06C
:100A0000010E1A6E04D0D890183619361A2A19AE6B
:100A1000FAD71850165C19501758D8A004D018509F
:100A2000165E1950175AD890193218321A2EF1D76B
:100A30001B50D8B404D0166C171ED8B0172A16C095
:100A400016F017C017F012000001986F020E000197
:100A500098612FD000019851030D580EF324F66EC3
:100A6000030EF420F76E0900F5CF22F00A00F5CF4F
:100A700023F02DC024F02EC025F02FC026F0C2ECAC
:100A800003F0E806D8A415D000019851020D010E1C
:100A9000F324F66E030EF420F76E0900F5CF30F064
:100AA0000900F5CF31F030503B1231503C12010EAD
:100AB0001200000E1200056E100E056012000550A7
:100AC000020D210EF324F66E030EF420F76E0900DA
:100AD000F5500900F510D8B4120001500210D8B436
:100AE00012000550020D600EF324D96E000EF420A2
:100AF000DA6E01C0DEFF02C0DDFF0550020D010EFF
:100B0000F324F66E030EF420F76E0900F5CF03F020
:100B10000900F5CF04F003503F12045040121200B8
:100B2000000E816E000E8A6E93949386800E6F6E17
:100B30006EAEFED7708C718C718E718271867188E9
:100B4000718A7280728270807082608A608C200EDE
:100B50000F01006F600E0F01016F000E0F01186F83
:100B6000000E0F01196FA384A380A3680F014097A3
:100B7000A494A490609E000E776E000E6F6E6EAE11
:100B80001200FDD700019C6F9CC045F0000E806EE6
:100B9000000E896E0F0EC16EFC0E926E89928980D6
:100BA000020E0001996F99C02DF09AC02EF09BC0E3
:100BB0002FF0455024EC05F0E806D8A402D0010E31
:100BC0001200000E1200000E166E1650D8A412006D
:100BD0001650020D5E0EF324F66E030EF420F76E2F
:100BE00001D80CD00500FA6E0900F550FD6E090021
:100BF000F550FE6EF850FF6EFA501200E806D8B4B9
:100C00001200162AE2D716C019F017C01AF01804FD
:100C100019C0D9FF1AC0DAFFDF6E20EE01F01950BB
:100C2000D9261A50DA22000EDF6E20EE02F019509B
:100C3000D9261A50DA22000EDF6E120000019C6FD6
:100C40009CC043F0020E0001996F99C02DF09AC02C
:100C50002EF09BC02FF0435024EC05F0E806D8A4FA
:100C600002D0010E1200000E1200180E186E000EB7
:100C7000196E03D01A50FDEC06F016C0F6FF17C02F
:100C8000F7FF164A172A0800F5CF1AF01A50D8B401
:100C90001200F0D7000E1A6E030E1718D8A408D051
:100CA000020E18181910D8A403D0AA0E87EC06F06B
:100CB0001AC017F01BC018F01CC019F01200176EF4
:100CC000080E186E000E196ED89017341934196E6C
:100CD000D89017361650195CD8A002D01650195E5D
:100CE000182EF2D71950120000EE60F0380EEE6A9E
:100CF000E806FDE100EE32F0180EEE6AE806FDE1CE
:100D00004A904A92000EF86E000173EF04F0166EDE
:100D100016C046FF600E0F01426F240E0F01416F97
:100D2000010E0F01456F0F0140810F0140830F013C
:100D3000408712001C501E02F3CF20F0F4CF21F0A8
:100D40001C501F02F35021261D501E02F350212675
:100D500020C01CF021C01DF01200020E1718D8A4EC
:100D600005D090EC05F0AA0E87EC06F0000E1A6E86
:100D70001AC017F01BC018F01CC019F01200040EA6
:100D80009D6E400EF26E0A0EBD6E010EBE6E000E1E
:100D9000BF6E210ECD6EF28E120099C02DF09AC05A
:100DA0002EF09BC02FF0455024EC05F012000F01EF
:100DB0004097000E026E320E016E020E5BEC05F0E3
:100DC000120089A202D0899202D089A2898260AEE3
:100DD0001200609E120003D05CEC02F04606465002
:100DE000D8A4FAD7010E120018C016F019C017F0D7
:0C0DF000BFEC06F01200000E1200120012
:020000040020DA
:08000000FFFFFFFFFFFFFFFF00
:020000040030CA
:0E000000FF08191EFF8085FF0FC00FE00F40A4
:00000001FF
