:040000000BEF00F012
:100008005682FACF26F0FBCF27F0B0ED06F057EF77
:0200180008F0EE
:1003000000010002000400080010002000400080EE
:10031000000001000200040008001000200040005E
:10032000807C19DC18921900000000000000000019
:1003300000000000000000000000000000000000BD
:100340000074149C0CEC166A05EC157216F6172650
:100350001800010102020202030303030303030363
:10036000A20004AE00043D0004490004341A7C19C4
:10037000DC184661696C6564206F6E206174746579
:100380006D707420746F20506F73740A0046616939
:100390006C6564206F6E204E554C4C20706F696EFA
:1003A0007465720A004661696C656420496E6974FF
:1003B00069616C697A6174696F6E0A004F7468656F
:1003C00072204661696C7572650A0000000120EEBA
:1003D00001F08D51D9268E51DA22DF500001D16F04
:1003E000000120EE02F08D51D9268E51DA22DF5025
:1003F0000001CC6F9FD0000E0001D26F55D00001DC
:10040000A0510001D219D8B40AD0000E0001CD6F5E
:10041000000ECE6F000ECF6F000ED06F1ED0800E7C
:100420000001C86F010E0001C96FD890000184352A
:10043000D96E00018535DA6ED890D936DA360001EA
:10044000C851D9260001C951DA22DECFCDF0DECF66
:10045000CEF0DECFCFF0DECFD0F0000E0001CD1118
:100460000001C86F000E0001CE110001C96F000E1F
:100470000001CF110001CA6FFF0E0001D011000171
:10048000CB6F0001D251040D800EF324D96E020E01
:10049000F420DA6EC8C0DEFFC9C0DEFFCAC0DEFFCE
:1004A000CBC0DEFF0001D22B000197510001D25DCD
:1004B000D8A0A5D7010E0001A0250001BD6F000145
:1004C000BE6B000EBE2397C0BFF00001C06BB9EC3D
:1004D00007F00001BD510001A06F0001A051000113
:1004E000D8A43CD0010E000184250001BD6F000E90
:1004F000000185210001BE6F000E00018621000170
:10050000BF6F000E000187210001C06F0D0E0001BA
:10051000C16F000EC26F000EC36F000EC46F0AECF5
:1005200008F0BDC084F0BEC085F0BFC086F0C0C07A
:1005300087F014D00001D151000AD8B40FD0010ABD
:10054000D8B40CD0030AD8B409D0010AD8B406D064
:10055000070AD8B403D0FB0AD8B44DD7800E0001E7
:10056000C66F020E0001C76F1200000E0001EF6F90
:1005700082D0020E0001E519D8A491D078D0090EDE
:100580000001E519D8A48BD0A6EC0CF0BDC080F01A
:10059000BEC081F0BFC082F0C0C083F000018351B3
:1005A00003EC0DF0020E64D0030E0001E519D8A48F
:1005B00076D00001825103EC0DF0030E59D0030EEA
:1005C0000001E519D8A46BD00001815103EC0DF0B6
:1005D000040E4ED0030E0001E519D8A460D000012E
:1005E000805103EC0DF0050E43D0030E0001E51918
:1005F000D8A455D0FF0E0001E86FFF0E0001E96F8F
:1006000000019F510001EA6FEB6B0001E85100010E
:10061000EA270001E9510001EB2300019C2B9C0516
:100620000001EC6FED6B0001EA510001EC5D00018F
:10063000ED51800A0001EE6F0001EB51800A0001CC
:10064000EE59D8B014D0040E00018F27000E90236D
:10065000A6EC0CF0BDC080F0BEC081F0BFC082F03F
:10066000C0C083F00001835103EC0DF09BD7010E55
:100670000001986F14D000019851000AD8B479D7BE
:10068000010AD8B47CD7030AD8B48ED7010AD8B4EB
:1006900096D7070AD8B49ED7010AD8B4A6D7EFC018
:1006A000E5F0F0C0E6F0F1C0E7F01200C9C0D1F00B
:1006B000CAC0D2F0000120EE02F0D151D926D251A9
:1006C000DA22DF50D8B46FD0F2CFCFF0F29E000123
:1006D00020EE01F0D151D926D251DA22DF500001AB
:1006E000CD6F010E0001CD250001C36F0001C46B69
:1006F000000EC423000E0001C66F030EC56F93ECFD
:100700000BF00001C3510001C925D96E0001C4518D
:100710000001CA21DA6ECBC0E1FFCCC0E2FFDECF20
:10072000E6FFDECFE6FFDECFE6FF000120EE01F0C0
:10073000D151D926D251DA22DF2AD1C0D9FFD2C075
:10074000DAFF000110EE01F0D151E126D251E22290
:10075000DE50E65CD8A019D0000120EE01F0D151A6
:10076000D926D251DA22D1C0E1FFD2C0E2FFE75050
:100770000001BD6F000110EE01F0D151E126D25110
:10078000E222E750D4EC0AF0DF6E000120EE02F026
:10079000D151D926D251DA22DF06DF500001D06FC5
:1007A000CFC0F2FF14D0CBC0D9FFCCC0DAFF000E0F
:1007B000DF6E000120EE01F0CB51D926CC51DA22B8
:1007C000000EDE6E000EDD6E000E0001D06F000127
:1007D000D05112000001935100019411D8B41200BD
:1007E00093C08BF094C08CF08BC0BDF08CC0BEF079
:1007F00067EC07F00001966F00019651020D600E44
:10080000F324D96E000EF420DA6EDE06000EDD5AF7
:10081000DE50DE10D8A443D0030E0001886F96C0CE
:1008200089F000018A6B88C0DAF089C0DBF08AC0E9
:10083000DCF000019651020D210EF324F66E030E3A
:10084000F420F76E01D80CD00500FA6E0900F550BF
:10085000FD6E0900F550FE6EF850FF6EFA50120062
:1008600000019651020D010EF324F66E030EF420E2
:10087000F76E0900F5CFDDF00900F5CFDEF00001DD
:10088000DD1D0001DF6F0001DE1D0001E06F0001D2
:10089000DF51000193170001E0510001941700019E
:1008A0009651020D010EF324F66E030EF420F76E3E
:1008B0000900F5CFDDF00900F5CFDEF00001DD1D08
:1008C0000001DF6F0001DE1D0001E06F0001DF515C
:1008D00000018B170001E05100018C1700018B51C2
:1008E00000018C11D8B412007FD76BD091C0BDF03D
:1008F00092C0BEF067EC07F00001F66F0001F65100
:10090000030D600EF324F66E030EF420F76E09005B
:10091000F5CFC9F00A00F5CFCAF0BA0E0001CB6FCF
:10092000000E0001CC6F56EC03F00009D8A41FD0D4
:100930000001F651020D010EF324F66E030EF420B1
:10094000F76E0900F5CFF2F00900F5CFF3F00001E2
:10095000F21D0001F46F0001F31D0001F56F0001AD
:10096000F451000191170001F55100019217BAC02E
:10097000E5F0BBC0E6F0BCC0E7F00001F651040DA5
:10098000020EF326000EF422410EF324F66E030E3F
:10099000F420F76E01D80CD00500FA6E0900F5506E
:1009A000FD6E0900F550FE6EF850FF6EFA50120011
:1009B000E50ED96E000EDA6EDF50D8B402D0020E0A
:1009C0001200B3EC0CF00009D8B406D0000191512C
:1009D00000019211D8A48AD7AFEC0AF0F2D7000137
:1009E000BF6FBFC09DF0000E0101006F000E016FD0
:1009F000000E026F000E036F00019D510001BD6FDC
:100A0000BE6B0001D890BD37BE370001D890BD370E
:100A1000BE37040E0001BD27000EBE23000E0001EC
:100A2000BD25D96E010E0001BE21DA6EFF0EDE6E0D
:100A3000FF0EDE6EFF0EDE6EFF0EDD6E000E02019B
:100A4000006F000E016F000E026F000E036F0001B9
:100A50009D510001BD6FBE6B0001D890BD37BE3700
:100A60000001D890BD37BE37040E0001BD27000E2F
:100A7000BE23000E0001BD25D96E020E0001BE216D
:100A8000DA6EFF0EDE6EFF0EDE6EFF0EDE6EFF0E06
:100A9000DD6E010E0001C06F13D00001C051040DC6
:100AA000000EF324D96E020EF420DA6E000EDE6E14
:100AB000000EDE6E000EDE6EE00EDD6E0001C02B5D
:100AC0000001C05100019D5DD8A01200E6D7DEC034
:100AD000BFF0DFC0C0F0FCEC0CF0000E0001E06FD6
:100AE000030E0001E06501D066D00001E051040D65
:100AF000410EF324F66E030EF420F76E0900F55054
:100B00000900F510D8B413D00001E051040D020E15
:100B1000F326000EF422410EF324F66E030EF420A9
:100B2000F76E0900F5500900F510D8A402D0030EA5
:100B300012000001E051030D600EF324F66E030E67
:100B4000F420F76E0900F5CFBDF00A00F5CFBEF036
:100B50000001E051030D020EF326000EF422600E98
:100B6000F324F66E030EF420F76E0800F5CFBFF005
:100B700058EC0BF00001E051040D410EF324F66E29
:100B8000030EF420F76E01D80ED00500FA6E0900AE
:100B9000F550FD6E0900F550FE6EF850FF6EFA50EC
:100BA0000001E0511200E806D8B402D0050E120090
:100BB0000001E02B95D7000E1200C9C0D2F0CAC0C8
:100BC000D3F0D2C0D9FFD3C0DAFF000110EE02F09B
:100BD000D251E126D351E222DE50E65CD8B05CD09F
:100BE000F2CFD1F0F29ED2C0D9FFD3C0DAFFDF50EE
:100BF0000001CE6F0001CE510001BF6FC06B00013C
:100C000020EE02F0D251D926D351DA22DF50000172
:100C1000CF6F000120EE01F0D251D926D351DA2254
:100C2000DF500001D06F0001D0510001CF2500013D
:100C3000BD6F0001BE6B0001BE37B9EC07F0010EBD
:100C40000001BD250001C36F000E0001BE2100019F
:100C5000C46F000E0001C66F030EC56F93EC0BF05E
:100C60000001C3510001C925D96E0001C451000122
:100C7000CA21DA6ECBC0DEFFCCC0DEFFCDC0DEFF06
:100C8000000120EE02F0D251D926D351DA22DF2A18
:100C9000D1C0F2FF010E1200000E1200000E000182
:100CA000E86F49D0020E0001E519D8A452D0010E18
:100CB00000019B6F050E0001EB6FEBC0DAF0ECC09A
:100CC000DBF0EDC0DCF0BEEC0CF043D0050E000113
:100CD000E519D8A43ED027EC0CF0020E29D0030E63
:100CE0000001E519D8A403D027EC0CF032D0060E91
:100CF0000001E519D8A403D07CEC0CF018D0070E45
:100D00000001E519D8A425D00CEC0DF0030E10D08D
:100D1000080E0001E519D8A403D027EC0CF0DDD7AC
:100D2000060E0001E519D8A414D07CEC0CF0010EDD
:100D300000019B6F0ED000019B51000AD8B4B2D7BE
:100D4000010AD8B4C3D7030AD8B4C9D7010AD8B4A2
:100D5000DFD7E8C0E5F0E9C0E6F0EAC0E7F012004E
:100D60000600E9CF28F0EACF29F0E1CF2AF0E2CF60
:100D70002BF0D9CF2CF0DACF2DF0F3CF2EF0F4CF2B
:100D80002FF0F6CF30F0F7CF31F0F8CF32F0F5CFCB
:100D900033F09EA415D0BF50246EBE50346E24C0D4
:100DA00035F0200E3424366E4E0E3520376E375017
:100DB000BF6E36C0BEFF9E940001A12B384A392A6F
:100DC0009EA603D09E96D4EC0CF0A4A403D0A494C9
:100DD000EAEC0CF0A4A003D0A49010EC0DF033C00A
:100DE000F5FF32C0F8FF31C0F7FF30C0F6FF2FC06B
:100DF000F4FF2EC0F3FF2DC0DAFF2CC0D9FF2BC0AB
:100E0000E2FF2AC0E1FF29C0EAFF28C0E9FF27C0AE
:100E1000FBFF26C0FAFF569211000DC016F00EC05F
:100E200017F016C0D9FF17C0DAFF10EE02F0165007
:100E3000E1261750E222DE50E65CD8B046D0F2CF71
:100E400015F0F29E16C0D9FF17C0DAFFDF50126E00
:100E50001250036E046A20EE02F01650D926175085
:100E6000DA22DF50136E20EE01F01650D92617500B
:100E7000DA22DF50146E14501324016E026A023617
:100E800062EC09F0010E0124076E000E0220086ECC
:100E9000000E0A6E030E096E3AEC0CF007500D249A
:100EA000D96E08500E20DA6E0FC0DEFF10C0DEFFD4
:100EB00011C0DEFF20EE02F01650D9261750DA22BC
:100EC000DF2A15C0F2FF010E1200000E1200800E84
:100ED0000001C46F030E0001C66F0001C6BF46D0FB
:100EE0000001C651040DF3CFBFF0BDC0C0F0BEC0BD
:100EF000C1F00001BF2B04D00001D890C133C03332
:100F00000001BF2FF9D70001C0510F0B0001C56FC1
:100F10000001C5510001D8B426D0FF0E0001BF6FFB
:100F2000FF0E0001C06F0001C5510001C16FC26B0F
:100F30000001BF510001C1270001C0510001C223BF
:100F4000510E0001C125F66E030EC221F76E080096
:100F5000F5CFC3F00001C651040DF3500001C325C5
:100F60000001C46F03D00001C607B7D70001C45108
:100F70001200000E0001C26F0001BEAF08D00001D8
:100F8000BD6DBE1FD8B0BE2B010E0001C26F0001A7
:100F9000C0AF05D00001BF6DC01FD8B0C02B00018D
:100FA000BF510001C011D8B426D0010E0001C16F9D
:100FB00006D00001D890BF37C0370001C12B000117
:100FC000C0AFF7D70001BF510001BD5D0001C051A6
:100FD0000001BE59D8A008D00001BF510001BD5F7B
:100FE0000001C0510001BE5B0001D890C033BF3387
:100FF0000001C12FE7D70001C2510001D8B405D0CC
:101000000001BD6DBE1FD8B0BE2BBDC0BDF0BEC0BF
:10101000BEF012000001C1510001C2110001C31154
:101020000001C411D8B43AD0010E0001C56F08D038
:101030000001D890C137C237C337C4370001C52B70
:101040000001C4AFF5D70001C1510001BD5D000131
:10105000C2510001BE590001C3510001BF59000136
:10106000C4510001C059D8A010D00001C1510001E5
:10107000BD5F0001C2510001BE5B0001C351000110
:10108000BF5B0001C4510001C05B0001D890C433B4
:10109000C333C233C1330001C52FD5D7BDC0BDF0A6
:1010A000BEC0BEF0BFC0BFF0C0C0C0F012005C0E3A
:1010B000F66E170EF76E000EF86E01EE80F010EE71
:1010C00034F00900F5CFEEFFE550E150FAE12E0EC5
:1010D000F66E1A0EF76E000EF86E00EEF8F010EED7
:1010E00005F00900F5CFEEFFE550E150FAE13A0EC8
:1010F000F66E1A0EF76E000EF86E0900F5CF55F079
:1011000002EE00F0F80EEE6AE806FDE101EE00F0F6
:10111000800EEE6AE806FDE100EE60F05D0EEE6A1C
:10112000E806FDE100EE34F0210EEE6AE806FDE18E
:1011300056905692000EF86E00019FEF08F0D3888B
:10114000D38AD38CD3829C0E0001DF6F3F0EDE6FFB
:1011500067EC05F00001F76F0001F7510001D8A41A
:1011600029D075EC04F00001F76F24D0720E000155
:10117000BD6F030E0001BE6FC8EC0BF027D08D0EC3
:101180000001BD6F030E0001BE6FC8EC0BF01ED056
:10119000A50E0001BD6F030E0001BE6FC8EC0BF081
:1011A00015D0BC0E0001BD6F030E0001BE6FC8EC70
:1011B0000BF00CD00001F751010AD8B4D7D7020ABE
:1011C000D8B4DDD7060AD8B4E3D7EBD7FFD70001F0
:1011D000C16F100E0001C16112000001C151020D6A
:1011E000210EF324F66E030EF420F76E0900F5507D
:1011F0000900F510D8B412000001BD510001BE1164
:10120000D8B412000001C151020D600EF324D96E52
:10121000000EF420DA6EBDC0DEFFBEC0DDFF0001AF
:10122000C151020D010EF324F66E030EF420F76E89
:101230000900F5CFBFF00900F5CFC0F00001BF51A4
:10124000000193130001C05100019413120000012A
:10125000D96F040E0001D96133D00001D951030DBB
:10126000600EF324F66E030EF420F76E0900F5CF3E
:10127000C9F00A00F5CFCAF0D4C0CBF0D5C0CCF08D
:10128000D6C0CDF0DDEC05F0E806D8A419D00001F9
:10129000D951020D010EF324F66E030EF420F76E01
:1012A0000900F5CFD7F00900F5CFD8F00001D751EC
:1012B000000191130001D85100019213010E120098
:1012C000000E1200000E066E02AE06D0016C021E69
:1012D000D8B0022A010E066E04AE04D0036C041EC0
:1012E000D8B0042A03500410D8B418D0010E056EEB
:1012F00004D0D89003360436052A04AEFAD703503A
:10130000015C04500258D8A004D00350015E045080
:10131000025AD89004320332052EF1D70650D8B4C1
:1013200004D0016C021ED8B0022A01C001F002C034
:1013300002F01200056E100E056012000550020D3D
:10134000210EF324F66E030EF420F76E0900F5501B
:101350000900F510D8B4120001500210D8B41200E0
:101360000550020D600EF324D96E000EF420DA6EE3
:1013700001C0DEFF02C0DDFF0550020D010EF324A7
:10138000F66E030EF420F76E0900F5CF03F00900A6
:10139000F5CF04F00350000193130450000194139F
:1013A00012001D6E040E1D602FD01D50030D600E27
:1013B000F324F66E030EF420F76E0900F5CF0DF05E
:1013C0000A00F5CF0EF018C00FF019C010F01AC0C7
:1013D00011F00DEC07F0E806D8A416D01D50020D50
:1013E000010EF324F66E030EF420F76E0900F5CF1C
:1013F0001BF00900F5CF1CF01B50000191131C508D
:1014000000019213010E1200000E1200000E816EF8
:10141000000E8A6E93949386800E6F6E800E6E6EB1
:101420006EAEFED7708C718C718E718271867188F0
:10143000718A7280728270807082600E6012200EDB
:101440000F01006F600E0F01016F000E0F01186F8A
:10145000000E0F01196F000E776E000E6F6E400EBA
:101460006E6E0F014097A494A490609EA384A38005
:10147000A36812000001DD6FDDC09EF00A0EEFECE4
:1014800004F0F80E0001BD6F000E0001BE6F0A0EE1
:101490000001BF6FF5EC0CF0000E00019B6F020E17
:1014A0000001DA6FDAC0D4F0DBC0D5F0DCC0D6F0D2
:1014B00000019E5127EC09F0E806D8A402D0010EE5
:1014C0001200000E12000001C16F0F0E0001C16575
:1014D00001D012000001C151020D010EF324F66E7D
:1014E000030EF420F76E0900F5CFBDF00900F5CF2B
:1014F000BEF00001BD1D0001BF6F0001BE1D000157
:10150000C06F0001BF51000193170001C0510001DD
:1015100094171200BFC0C5F0C0C0C6F0BDC0C3F074
:10152000BEC0C4F010D0C5C0D9FFC6C0DAFFC3C06A
:10153000E1FFC4C0E2FFDFCFE7FF0001C54BC62BD0
:101540000001C34BC42B0001C107D8A0C207000192
:10155000C129E9E10001C229D8B41200E4D7000E84
:101560000001BD6F0001BD510001D8A412000001AF
:10157000BD51020D6C0EF324F66E030EF420F76ECF
:1015800001D80CD00500FA6E0900F550FD6E090077
:10159000F550FE6EF850FF6EFA501200E806D8B40F
:1015A00012000001BD2BDED70001BE6F080E000146
:1015B000BF6F000E0001C06FD8900001BE35000162
:1015C000C0350001C06F0001D890BE370001BD5189
:1015D0000001C05DD8A004D00001BD510001C05F72
:1015E0000001BF2FE9D70001C05112000001DD6FDB
:1015F000DDC09AF0000E806E000E896E0F0EC16E77
:10160000FC0E926E89928980020E0001DA6FDAC0B8
:10161000D4F0DBC0D5F0DCC0D6F000019A5127EC45
:1016200009F0E806D8A402D0010E1200000E120044
:10163000040E0001BD6F010E0001BE6FE3C0BFF0DC
:10164000E4C0C0F000019D51040DF3CFC1F0F4CF10
:10165000C2F08AEC0AF0000E0001DD6F010E0001FD
:10166000DE6F00019D51020F0001DF6FE2EC0BF015
:101670001200000E0001E86F030E0001E519D8A466
:1016800010D0020E0001E6190001E711D8A409D01C
:1016900089A202D0899202D089A28982AA0E5EEC28
:1016A0000CF0E8C0E5F0E9C0E6F0EAC0E7F01200AF
:1016B000BDC0C0F0BEC0C1F00001BF05C0C0D9FFB1
:1016C000C1C0DAFFDF6E000120EE01F0C051D92663
:1016D000C151DA22000EDF6E000120EE02F0C0518F
:1016E000D926C151DA22000EDF6E12000001DD6F33
:1016F000DDC099F014EC0DF0000E0001986F020EA1
:101700000001DA6FDAC0D4F0DBC0D5F0DCC0D6F06F
:101710000001995127EC09F0E806D8A402D0010E87
:101720001200000E12000001C3510001C503F3CFE7
:10173000C7F0F4CFC8F00001C3510001C603F35055
:101740000001C8270001C4510001C503F350000186
:10175000C827C7C0C3F0C8C0C4F012000000FF0013
:1017600000A5FF0000FFFF000080800000FF0000D8
:1017700000800000FFFF000080800000FF000000EC
:1017800080000000FF00FF0080008000000080005B
:10179000BF0E0001BF6F000E0001C06F04D000013A
:1017A000C1511CEC0DF0BDC0F6FFBEC0F7FF00013B
:1017B000BD4BBE2B0800F5CFC1F00001C151D8B41C
:1017C0001200EDD700019805D8A41200000E000108
:1017D0009C6FDDC08FF0DEC090F0DFC09FF0090E7F
:1017E0000001E06FE0C0DAF0E1C0DBF0E2C0DCF065
:1017F0006EEC0CF012000001DD6FDDC095F0020E02
:101800000001DA6FDAC0D4F0DBC0D5F0DCC0D6F06E
:101810000001955127EC09F0E806D8A402D0010E8A
:101820001200000E1200020E0001E519D8A405D026
:1018300006EC0AF0AA0E5EEC0CF0000E0001E86F58
:10184000E8C0E5F0E9C0E6F0EAC0E7F01200FCC04D
:10185000BDF00001BE6B000EE7EC08F0E6EC01F015
:10186000C6C0E3F0C7C0E4F018EC0BF0010E0001B5
:10187000F86F120007500902F3CF0BF0F4CF0CF011
:1018800007500A02F3500C2608500902F3500C26A8
:101890000BC007F00CC008F01200000E826E000EA4
:1018A0008B6E0F0EC16E000E946E9D86000EC66E7E
:1018B000400EC76EC868300EC66E12000001BD6FC4
:1018C000BDC046FF600E0F01426F240E0F01416F35
:1018D000010E0F01456F0F014087120056B2DFEF76
:1018E0000CF0DAC0D4F0DBC0D5F0DCC0D6F00001DB
:1018F000995127EC09F01200000E0001F86F000E5C
:1019000063EC0AF08AEC0CF008EC0DF0000E00011C
:10191000F86F1200000E0001DD6F020E0001DE6F95
:1019200000019D51020F0001DF6FE2EC0BF012008D
:10193000040E9D6E400EF26E0A0EBD6E010EBE6E5E
:10194000000EBF6E210ECD6EF28E12008FC0D9FF39
:1019500090C0DAFFDECFBDF0DECFBEF0DECFBFF04D
:10196000DECFC0F0120004D0EAEC03F00001A107C2
:101970000001A151D8A4F8D7010E1200DAC0D4F0AA
:10198000DBC0D5F0DCC0D6F000019E5127EC09F099
:101990001200DAC0D4F0DBC0D5F0DCC0D6F0000114
:1019A0009A5127EC09F01200030E216E21C01EF09F
:1019B00022C01FF023C020F0DFEC0CF012001EC08C
:1019C00018F01FC019F020C01AF000019951D1EC95
:1019D00009F0120089820F014097000E026E320E4C
:1019E000016E020E9AEC09F01200BDC08DF0BEC06F
:1019F0008EF0BFC097F01200BFC0BDF0C0C0BEF0F7
:101A000098EC0CF012000001BD6FBDC0C9FF1200C0
:101A1000000E0001A06F1200000E63EC0AF012002D
:101A200060AE1200609E12004DEC0CF0120000FF40
:031A30001F000193
:071A3400000E120012001F5A
:020000040020DA
:08000000FFFFFFFFFFFFFFFF00
:020000040030CA
:0E000000FF08191EFF8085FF0FC00FE00F40A4
:00000001FF
